:020000040000FA
:060000007BEF05F0120089
:020006001200E6
:060008001FEF00F01200E2
:0600180016EF00F01200DB
:02001E000100DF
:0C002000120B0000600000002C0000002B
:04002C00DACFE4FF44
:10003000E2CFDAFFE652E552E5CFDAFF1100DACF80
:10004000E4FFE2CFDAFFE9CFE4FFEACFE4FFF6CF47
:10005000E4FFF7CFE4FFF5CFE4FFF3CFE4FFF4CF05
:10006000E4FFFACFE4FF00EE00F0140EE80403E32F
:10007000EECFE4FFFBD700EE15F0010EE80403E33A
:10008000EECFE4FFFBD7E652F2A46CD280B23CD0B4
:100090007AC005F07BC006F07CC007F07DC008F098
:1000A0000A6A0B6A800E0C6E3F0E0D6EA2EC03F016
:1000B00005C07AF006C07BF007C07CF008C07DF078
:1000C0007EC00AF07FC00BF080C00CF081C00DF044
:1000D0007AC005F07BC006F07CC007F07DC008F058
:1000E00038EC04F0010A0FE100016D6B6E6B6F6B71
:1000F000706B716B726B736B746B7A6B7B6B800E56
:100100007C6F3F0E7D6F05D000017A6B7B6B7C6B43
:100110007D6B80B052D082C005F083C006F084C0F1
:1001200007F085C008F00A6A0B6A800E0C6E3F0E5D
:100130000D6EA2EC03F005C082F006C083F007C08C
:1001400084F008C085F086C00AF087C00BF088C034
:100150000CF089C00DF082C005F083C006F084C0A9
:1001600007F085C008F038EC04F0010A25E1000E24
:100170000001E76E7819E8AE02D0783503D0E75079
:10018000D88078550CE2040EE76E7819E8AE02D0FC
:10019000E73402D0E750785D02E2786B07D07851FF
:1001A00003E1040E786F02D0010E786F826B836BCF
:1001B000800E846F3F0E856F05D00001826B836BCC
:1001C000846B856BFC0ED76E180ED66E00017751CE
:1001D0008A5D06E1765101E132DA00018A6B01D0D5
:1001E0008A2B8B6A8A6A040EE76E7819E8AE02D011
:1001F000E73402D0E750785D24E26051020A16E04D
:10020000030A0FE0010A08E0030A01E014D0800E9F
:100210008A6E606B612B0FD0400E8A6E010E606F8C
:100220000AD0200E8A6E020E606F05D0100E8A6E04
:10023000030E606F00D0610502E1809802D08088D3
:10024000616B000EE76E7819E8AE02D0783503D006
:10025000E750D88078553CE2040EE76E7819E8AE96
:1002600002D0E73402D0E750785D32E2010E786FB9
:10027000000EE76E7119E8AE02D0713503D0E75079
:10028000D88071550BE3000EE76E7219E8AE02D00C
:10029000723503D0E750D880725502E2020E786FB3
:1002A000000EE76E7319E8AE02D0733503D0E75045
:1002B000D88073550BE3000EE76E7419E8AE02D0D8
:1002C000743503D0E750D880745502E2030E786F7E
:1002D0007851040A01E142D1050A01E1E8D0030A9C
:1002E00001E196D0010A46E0030A01E03AD1040E8A
:1002F0006103F350602502080CE0040E6103F35023
:100300006025040806E0040E6103F350602506082A
:1003100019E1040E6103F3506025E96EEA6AE9BE53
:10032000EA686D0EE926000EEA22EFCFE9FFEA6ADD
:10033000E9BEEA68620EE926000EEA22EF50800963
:100340008B6E17D0040E6103F3506025E96EEA6AE4
:10035000E9BEEA686D0EE926000EEA22EFCFE9FF5A
:10036000EA6AE9BEEA68620EE926000EEA22EF5068
:100370008B6EF7D0040E6103F350602506E0040E87
:100380006103F3506025070802E18B6A40D0040E38
:100390006103F3506025030806E0040E6103F35087
:1003A000602505081BE1040E6103F3CF14F06029FA
:1003B0001424E96EEA6AE9BEEA686D0EE926000EC9
:1003C000EA22EFCFE9FFEA6AE9BEEA68620EE926AF
:1003D000000EEA22EF5080098B6E19D0040E6103E3
:1003E000F3CF14F060291424E96EEA6AE9BEEA68E2
:1003F0006D0EE926000EEA22EFCFE9FFEA6AE9BEB8
:10040000EA68620EE926000EEA22EF508B6EA9D050
:10041000040E6103F350602506E0040E6103F350FF
:100420006025070803E18B6A8A6A40D0040E6103E5
:10043000F3506025030806E0040E6103F3506025C5
:1004400005081BE1040E6103F3CF14F060051424CA
:10045000E96EEA6AE9BEEA686D0EE926000EEA2254
:10046000EFCFE9FFEA6AE9BEEA68620EE926000E0C
:10047000EA22EF5080098B6E19D0040E6103F3CF8E
:1004800014F060051424E96EEA6AE9BEEA686D0EAC
:10049000E926000EEA22EFCFE9FFEA6AE9BEEA6840
:1004A000620EE926000EEA22EF508B6E5AD0040E3F
:1004B0006103F350602512E0040E6103F3506025E0
:1004C00001080CE0040E6103F3506025060806E005
:1004D000040E6103F3506025070803E18B6A8A6A02
:1004E0003CD0040E6103F350602504081CE1040EA7
:1004F0006103F3CF14F0020E605D1424E96EEA6A22
:10050000E9BEEA686D0EE926000EEA22EFCFE9FFA8
:10051000EA6AE9BEEA68620EE926000EEA22EF50B6
:1005200080098B6E1AD0040E6103F3CF14F0020E13
:10053000605D1424E96EEA6AE9BEEA686D0EE92698
:10054000000EEA22EFCFE9FFEA6AE9BEEA68620E2E
:10055000E926000EEA22EF508B6E03D08B6A8A6A7E
:1005600000D0F294F2A019D080B00DD0000179052E
:1005700002E1796B08D0040E785D04E1760502E1B2
:10058000010E786F766B80B207D00001790502E129
:10059000796B02D0010E766FF290E55200EE15F005
:1005A000010EE80403E3E5CFEDFFFBD700EE13F007
:1005B000140EE80403E3E5CFEDFFFBD7E5CFFAFF28
:1005C000E5CFF4FFE5CFF3FFE5CFF5FFE5CFF7FF8C
:1005D000E5CFF6FFE5CFEAFFE5CFE9FFE5CFDAFFAC
:1005E000110000018B510CE10001010E8B6F0AD844
:1005F0000CD8936A946A9298929A809A8088D38E43
:1006000003001200570ED36E12009268F19EF18023
:10061000030E796EF286D59CD59AD586D59CD59A4F
:10062000D586FC0ED76E180ED66ED58ED08EF28C77
:10063000F28EF28AF184F294D58EF28E1200D9CF26
:10064000E6FFE1CFD9FFE652DF6A00016D2BDF6ADA
:10065000DFCF15F0070EE76E1518E8AE02D0E734CD
:1006600002D0E750155C68E2050EE76E7019E8AE3F
:1006700002D0703503D0E750D880705502E2706B1D
:10068000712B050EE76E7219E8AE02D0723503D0F9
:10069000E750D880725502E2726B732BDFCFE9FF0F
:1006A000EA6AE9BEEA686D0EE926000EEA22EFCF9B
:1006B00015F0090EE76E1518E8AE02D0153403D018
:1006C000E750D880155414E2DF28E96EEA6AE9BEE3
:1006D000EA686D0EE926000EEA22EF2ADFCFE9FF75
:1006E000EA6AE9BEEA686D0EE926000EEA22EF6AC0
:1006F000DFCFE9FFEA6AE9BEEA686D0EE926000E7F
:10070000EA22EFCF15F0153415E3DF28E96EEA6A27
:10071000E9BEEA686D0EE926000EEA22EF06DFCF99
:10072000E9FFEA6AE9BEEA686D0EE926000EEA22F0
:10073000090EEF6EDF2A8CD7E552E552E7CFD9FFDD
:020740001200A5
:0E0742000D7E0F6AEEEC04F006EC05F00FB62B
:1007500096EF04F00FA20AD00FAA03D00FBE96EFB7
:1007600004F00FA4A2EF04F09FEF04F00FAA05D04D
:100770000FACA2EF04F09FEF04F00FA00AD00FA877
:1007800008D00FBE04D00FA402D0ABEF04F0AFEF3F
:1007900004F0126A036A0D50085C116E10E305C084
:1007A00013F006C000F007C001F008C010F00AC046
:1007B00005F00BC006F00CC007F00F3A09D00AC0D4
:1007C00013F00BC000F00CC001F00DC010F0116C64
:1007D0000F9E0FBC0F8E10C002F00FB0DEEF04F0C2
:1007E0001A0E1160DEEF04F0026A086A0FA408D046
:1007F000056C061E071E081EE86A0622072208224C
:100800000FAC08D0136C001E011E021EE86A002205
:1008100001220222046A115207E00834073206322C
:1008200005320432112EF9D7055013260650002246
:10083000075001220850022204C012F00F9E02AE9F
:100840000BD0126C131E001E011E021EE86A13223A
:100850000022012202220F8E02A006D0D88001328F
:10086000003213321232102A10C002F0B2EF04F03C
:1008700041EC04F00FB6000C0FB0000C0FB4000CEC
:10088000010C0F6AEEEC04F006EC05F00FB6120056
:100890000FAE08D00FA004D00FA802D00F80120016
:1008A0000F9012000D50085C0BE10C50075C08E142
:1008B0000B50065C05E10A50055C02E10F80120056
:1008C000D8A002D00F8E10D008500DC008F00D6EC9
:1008D00007500CC007F00C6E06500BC006F00B6EF4
:1008E00005500AC005F00A6E0D50085C10E0FF0FBD
:1008F00009E00F900FB403D00FAE0F8412000FAEBB
:100900000F9412000D2AD8900C320B320A320A5082
:10091000055E0B50065A0C50075A07BEEAD7D8900E
:10092000053606360736082EF8D7C8D77F0E086E6C
:10093000FF0E076E066E056E12007F0E0FBEFF0ED5
:10094000086E02D07F0E086E800E076E066A056A7A
:10095000F3D70FAE04D0800E086E076AF7D7086A87
:10096000076AF4D70150001013101210F8E003BE0C
:10097000F0D701BE0CD002500310EBE0D890123635
:100980001336003601360206D8A00306F2D703500C
:10099000D4E10228D2E012AE11D07F0E121402E18F
:1009A00013A00CD0132AE86A0022012207E3D880A2
:1009B000013200321332022A0228BFE00250C9E09D
:1009C00013C005F000C006F00134076E0230086E57
:1009D0000732089E0FBE088E9CEF04F007360836DB
:1009E00002E30F840F7E06E10F80086A076A066A39
:1009F000056A1200082803E0D88007321200D89058
:100A0000073202E10F8212000F8612000C360D36FB
:100A100002E30F8C0F7E06E10F880D6A0C6A0B6AE9
:100A20000A6A12000D2803E0D8800C321200D89018
:080A30000C32EAE10F8A12000A
:080A38001E0EF66E000EF76EB3
:100A4000000EF86E00010900F550916F0900F55095
:100A5000926F03E1916701D03DD00900F5508C6F92
:100A60000900F5508D6F0900F5508E6F09000900DF
:100A7000F550E96E0900F550EA6E09000900090019
:100A8000F5508F6F0900F550906F09000900F6CFFF
:100A900093F0F7CF94F0F8CF95F08CC0F6FF8DC0AF
:100AA000F7FF8EC0F8FF00018F5302E1905307E07B
:100AB0000900F550EE6E8F07F8E29007F9D793C062
:100AC000F6FF94C0F7FF95C0F8FF00019107000EF4
:060AD000925BBFD712008B
:0A0AD600000EF36E00EE00F0030EB8
:100AE00001D81200EA6002D0EE6AFCD7F350E96048
:060AF0001200EE6AFCD7C3
:0A0AF60011EE00F021EE00F0F86AA6
:100B00000F9C1CEC05F003EC00F0F1EC02F0FBD7BD
:020B10001200D1
:0E0B120000003F065B4F666D7D077F67790030
:100B200000000000000000000009010000000000BB
:0E0B300000803B450000000000803B450000B7
:020000040030CA
:0100010008F6
:0100020019E4
:010003001EDE
:010006008178
:00000001FF
