:020000040000FA
:060000001BEF06F01200E8
:020006001200E6
:060008001FEF00F01200E2
:0600180016EF00F01200DB
:02001E000100DF
:0C002000520C00006000000039000000DD
:04002C00DACFE4FF44
:10003000E2CFDAFFE652E552E5CFDAFF1100DACF80
:10004000E4FFE2CFDAFFE9CFE4FFEACFE4FFF6CF47
:10005000E4FFF7CFE4FFF5CFE4FFF3CFE4FFF4CF05
:10006000E4FFFACFE4FF00EE00F0140EE80403E32F
:10007000EECFE4FFFBD700EE18F0010EE80403E337
:10008000EECFE4FFFBD7E652F2A4A5D28050020BDC
:1000900043E18050010B40E00001876B886B896B66
:1000A0008A6B7D2B000E7E237DC006F07EC007F09C
:1000B0002EEC04F005C014F006C015F007C016F0D1
:1000C00008C017F08BC00AF08CC00BF08DC00CF08C
:1000D0008EC00DF014C005F015C006F016C007F074
:1000E00017C008F0D8EC04F0010A12E100017C0509
:1000F0000FE1010E626F200E896E706B716B726B77
:10010000736B746B756B766B776B010E7D6F7E6BAB
:100110000001010E7C6F03D000017D6B7E6B80506F
:10012000010B69E18050020B66E0876B886B896B7D
:100130008A6B8FC005F090C006F091C007F092C0A6
:1001400008F00A6A0B6A800E0C6E3F0E0D6E42ECD0
:1001500004F005C08FF006C090F007C091F008C011
:1001600092F093C00AF094C00BF095C00CF096C0CA
:100170000DF08FC005F090C006F091C007F092C05E
:1001800008F0D8EC04F0010A2BE100017C0528E11D
:10019000010E626F200E896E000EE76E7B19E8AECD
:1001A00002D07B3503D0E750D8807B550CE2040E9B
:1001B000E76E7B19E8AE02D0E73402D0E7507B5DF2
:1001C00002E27B6B07D07B5103E1040E7B6F02D010
:1001D000010E7B6F8F6B906B800E916F3F0E926F55
:1001E000040E00017B5D04E17C5102E1010E7B6F96
:1001F000010E7C6F04D08F6B906B916B926BFC0E39
:10020000D76EAA0ED66E000EE76E6219E8AE02D067
:10021000623503D0E750D880625501E2622B62C09C
:1002200014F0156A14BE156864511518E8AE02D0B2
:10023000153404D01450635D1550645902E2626BAA
:10024000806A7A51975D06E1795101E183DA000114
:10025000976B01D0972B8B6A040EE76E7B19E8AE83
:1002600002D0E73402D0E7507B5D24E26051020AFD
:1002700016E0030A0FE0010A08E0030A01E014D0C7
:10028000800E8A6E606B612B0FD0400E8A6E010E5D
:10029000606F0AD0200E8A6E020E606F05D0100EBD
:1002A0008A6E030E606F00D0610502E1809802D073
:1002B0008088616B7B51040A01E142D1050A01E1AA
:1002C000E8D0030A01E196D0010A46E0030A01E002
:1002D0003AD1040E6103F350602502080CE0040ECD
:1002E0006103F3506025040806E0040E6103F35037
:1002F0006025060819E1040E6103F3506025E96EDC
:10030000EA6AE9BEEA68700EE926000EEA22EFCF3B
:10031000E9FFEA6AE9BEEA68650EE926000EEA220C
:10032000EF5080098B6E17D0040E6103F3506025E7
:10033000E96EEA6AE9BEEA68700EE926000EEA2272
:10034000EFCFE9FFEA6AE9BEEA68650EE926000E2A
:10035000EA22EF508B6EF7D0040E6103F350602554
:1003600006E0040E6103F3506025070802E18B6A82
:1003700040D0040E6103F3506025030806E0040E2C
:100380006103F350602505081BE1040E6103F3CF00
:1003900014F060291424E96EEA6AE9BEEA68700E76
:1003A000E926000EEA22EFCFE9FFEA6AE9BEEA6831
:1003B000650EE926000EEA22EF5080098B6E19D0F7
:1003C000040E6103F3CF14F060291424E96EEA6A85
:1003D000E9BEEA68700EE926000EEA22EFCFE9FFD7
:1003E000EA6AE9BEEA68650EE926000EEA22EF50E5
:1003F0008B6EA9D0040E6103F350602506E0040E55
:100400006103F3506025070803E18B6A8A6A40D0D4
:10041000040E6103F3506025030806E0040E610337
:10042000F350602505081BE1040E6103F3CF14F0BF
:1004300060051424E96EEA6AE9BEEA68700EE926EE
:10044000000EEA22EFCFE9FFEA6AE9BEEA68650E2C
:10045000E926000EEA22EF5080098B6E19D0040EB7
:100460006103F3CF14F060051424E96EEA6AE9BE73
:10047000EA68700EE926000EEA22EFCFE9FFEA6A89
:10048000E9BEEA68650EE926000EEA22EF508B6E9F
:100490005AD0040E6103F350602512E0040E61038C
:1004A000F350602501080CE0040E6103F350602551
:1004B000060806E0040E6103F3506025070803E117
:1004C0008B6A8A6A3CD0040E6103F35060250408ED
:1004D0001CE1040E6103F3CF14F0020E605D1424DE
:1004E000E96EEA6AE9BEEA68700EE926000EEA22C1
:1004F000EFCFE9FFEA6AE9BEEA68650EE926000E79
:10050000EA22EF5080098B6E1AD0040E6103F3CFFC
:1005100014F0020E605D1424E96EEA6AE9BEEA682E
:10052000700EE926000EEA22EFCFE9FFEA6AE9BE83
:10053000EA68650EE926000EEA22EF508B6E03D0C2
:100540008B6A8A6A00D0000EE76E7B19E8AE02D093
:100550007B3503D0E750D8807B553CE2040EE76E34
:100560007B19E8AE02D0E73402D0E7507B5D32E27F
:10057000010E7B6F000EE76E7419E8AE02D0743581
:1005800003D0E750D88074550BE3000EE76E751961
:10059000E8AE02D0753503D0E750D880755502E239
:1005A000020E7B6F000EE76E7619E8AE02D076354C
:1005B00003D0E750D88076550BE3000EE76E77192D
:1005C000E8AE02D0773503D0E750D880775502E205
:1005D000030E7B6FF294F2A023D00001816B826B3B
:1005E000D38E80B010D0010E811901E1825103E158
:1005F000816B826B08D0040E7B5D04E1790502E11A
:10060000010E7B6F796B80B20AD0010E811901E176
:10061000825103E1816B826B02D0010E796FF290FF
:100620000001790504E1812B000E822302D0816B49
:10063000826B87C005F088C006F089C007F08AC0C9
:1006400008F00A6A0B6A800E0C6E3F0E0D6E42ECCB
:1006500004F005C087F006C088F007C089F008C024
:100660008AF0000180518219E8AE02D0823504D0B0
:1006700081517F5D8251805903E2D39E8A6A8B6AE1
:1006800083C00AF084C00BF085C00CF086C00DF06A
:1006900087C005F088C006F089C007F08AC008F05E
:1006A000D8EC04F0010A04E100017C6B040E7B6FBE
:1006B000E55200EE18F0010EE80403E3E5CFEDFF8C
:1006C000FBD700EE13F0140EE80403E3E5CFEDFFD3
:1006D000FBD7E5CFFAFFE5CFF4FFE5CFF3FFE5CF9A
:1006E000F5FFE5CFF7FFE5CFF6FFE5CFEAFFE5CF72
:1006F000E9FFE5CFDAFF1100000198510CE100019C
:10070000010E986F0AD80CD8936A946A9298929ABC
:10071000809A8088D38E03001200570ED36E120089
:100720009268F19EF180030E796EF286D59CD59A7F
:10073000D586D59CD59AD586FC0ED76EAA0ED66ED8
:10074000D58ED08EF28CF28EF28AF184F294D58E10
:10075000F28E1200D9CFE6FFE1CFD9FFE652DF6A71
:100760000001702BDF6ADFCF18F0070EE76E181854
:10077000E8AE02D0E73402D0E750185C68E2050E1C
:10078000E76E7319E8AE02D0733503D0E750D88016
:10079000735502E2736B742B050EE76E7519E8AEA4
:1007A00002D0753503D0E750D880755502E2756BDD
:1007B000762BDFCFE9FFEA6AE9BEEA68700EE92628
:1007C000000EEA22EFCF18F0090EE76E1818E8AE17
:1007D00002D0183403D0E750D880185414E2DF2830
:1007E000E96EEA6AE9BEEA68700EE926000EEA22BE
:1007F000EF2ADFCFE9FFEA6AE9BEEA68700EE92670
:10080000000EEA22EF6ADFCFE9FFEA6AE9BEEA6892
:10081000700EE926000EEA22EFCF18F0183415E327
:10082000DF28E96EEA6AE9BEEA68700EE926000E82
:10083000EA22EF06DFCFE9FFEA6AE9BEEA68700E56
:10084000E926000EEA22090EEF6EDF2A8CD7E55268
:08085000E552E7CFD9FF1200C9
:080858000F9E08D00F9E07AEB1
:1008600005D0066C071EE86A07220F8E07C001F04C
:1008700006C000F0136A126A8E0E026E036A52EF0F
:1008800005F00D7E0F6A8EEC05F0A6EC05F00FB6B4
:1008900036EF05F00FA20AD00FAA03D00FBE36EF35
:1008A00005F00FA442EF05F03FEF05F00FAA05D0C9
:1008B0000FAC42EF05F03FEF05F00FA00AD00FA8F4
:1008C00008D00FBE04D00FA402D04BEF05F04FEFBD
:1008D00005F0126A036A0D50085C116E10E305C042
:1008E00013F006C000F007C001F008C010F00AC005
:1008F00005F00BC006F00CC007F00F3A09D00AC093
:1009000013F00BC000F00CC001F00DC010F0116C22
:100910000F9E0FBC0F8E10C002F00FB07EEF05F0DF
:100920001A0E11607EEF05F0026A086A0FA408D063
:10093000056C061E071E081EE86A0622072208220A
:100940000FAC08D0136C001E011E021EE86A0022C4
:1009500001220222046A115207E0083407320632EB
:1009600005320432112EF9D7055013260650002205
:10097000075001220850022204C012F00F9E02AE5E
:100980000BD0126C131E001E011E021EE86A1322F9
:100990000022012202220F8E02A006D0D88001324E
:1009A000003213321232102A10C002F052EF05F05A
:1009B000E1EC04F00FB6000C0FB0000C0FB4000C0B
:1009C000010C0F6A8EEC05F0A6EC05F00FB61200D4
:1009D0000FAE08D00FA004D00FA802D00F801200D5
:1009E0000F9012000D50085C0BE10C50075C08E101
:1009F0000B50065C05E10A50055C02E10F80120015
:100A0000D8A002D00F8E10D008500DC008F00D6E87
:100A100007500CC007F00C6E06500BC006F00B6EB2
:100A200005500AC005F00A6E0D50085C10E0FF0F7B
:100A300009E00F900FB403D00FAE0F8412000FAE79
:100A40000F9412000D2AD8900C320B320A320A5041
:100A5000055E0B50065A0C50075A07BEEAD7D890CD
:100A6000053606360736082EF8D7C8D77F0E086E2B
:100A7000FF0E076E066E056E12007F0E0FBEFF0E94
:100A8000086E02D07F0E086E800E076E066A056A39
:100A9000F3D70FAE04D0800E086E076AF7D7086A46
:100AA000076AF4D70150001013101210F8E003BECB
:100AB000F0D701BE0CD002500310EBE0D8901236F4
:100AC0001336003601360206D8A00306F2D70350CB
:100AD000D4E10228D2E012AE11D07F0E121402E14E
:100AE00013A00CD0132AE86A0022012207E3D88061
:100AF000013200321332022A0228BFE00250C9E05C
:100B000013C005F000C006F00134076E0230086E15
:100B10000732089E0FBE088E3CEF05F007360836F8
:100B200002E30F840F7E06E10F80086A076A066AF7
:100B3000056A1200082803E0D88007321200D89016
:100B4000073202E10F8212000F8612000C360D36BA
:100B500002E30F8C0F7E06E10F880D6A0C6A0B6AA8
:100B60000A6A12000D2803E0D8800C321200D890D7
:080B70000C32EAE10F8A1200C9
:080B78001E0EF66E000EF76E72
:100B8000000EF86E00010900F5509E6F0900F55047
:100B90009F6F03E19E6701D03DD00900F550996F2A
:100BA0000900F5509A6F0900F5509B6F0900090084
:100BB000F550E96E0900F550EA6E090009000900D8
:100BC000F5509C6F0900F5509D6F09000900F6CFA4
:100BD000A0F0F7CFA1F0F8CFA2F099C0F6FF9AC02D
:100BE000F7FF9BC0F8FF00019C5302E19D5307E013
:100BF0000900F550EE6E9C07F8E29D07F9D7A0C0FA
:100C0000F6FFA1C0F7FFA2C0F8FF00019E07000E8B
:060C10009F5BBFD712003C
:0A0C1600000EF36E00EE00F0030E76
:100C200001D81200EA6002D0EE6AFCD7F350E96006
:060C30001200EE6AFCD781
:0A0C360011EE00F021EE00F0F86A64
:100C40000F9CBCEC05F003EC00F07CEC03F0FBD750
:020C5000120090
:0E0C520000000019003F065B4F666D7D077FB6
:100C6000677900000000000000000000070101009B
:100C700000401F000000803B470000000000803B58
:0B0C8000450000000000803B45000024
:020000040030CA
:0100010008F6
:0100020019E4
:010003001EDE
:010006008178
:00000001FF
