:020000040000FA
:06000000EEEF05F0120016
:020006001200E6
:060008001FEF00F01200E2
:0600180016EF00F01200DB
:02001E000100DF
:0C002000F80B000060000000360000003B
:04002C00DACFE4FF44
:10003000E2CFDAFFE652E552E5CFDAFF1100DACF80
:10004000E4FFE2CFDAFFE9CFE4FFEACFE4FFF6CF47
:10005000E4FFF7CFE4FFF5CFE4FFF3CFE4FFF4CF05
:10006000E4FFFACFE4FF00EE00F0140EE80403E32F
:10007000EECFE4FFFBD700EE18F0010EE80403E337
:10008000EECFE4FFFBD7E652F2A47BD28050020B06
:100090003FE18050010B3CE00001846B856B866B77
:1000A000876B7A2B000E7B237AC006F07BC007F0AB
:1000B00001EC04F005C014F006C015F007C016F0FE
:1000C00008C017F088C00AF089C00BF08AC00CF095
:1000D0008BC00DF014C005F015C006F016C007F077
:1000E00017C008F0ABEC04F0010A0EE1000179053D
:1000F0000BE16D6B6E6B6F6B706B716B726B736B17
:10010000746B010E7A6F7B6B0001010E796F03D067
:1001100000017A6B7B6B8050010B5EE18050020B1B
:100120005BE0846B856B866B876B8CC005F08DC044
:1001300006F08EC007F08FC008F00A6A0B6A800EC6
:100140000C6E3F0E0D6E15EC04F005C08CF006C071
:100150008DF007C08EF008C08FF090C00AF091C0FB
:100160000BF092C00CF093C00DF08CC005F08DC068
:1001700006F08EC007F08FC008F0ABEC04F0010A67
:1001800027E10001790524E1000EE76E7819E8AE59
:1001900002D0783503D0E750D88078550CE2040EB1
:1001A000E76E7819E8AE02D0E73402D0E750785D08
:1001B00002E2786B07D0785103E1040E786F02D029
:1001C000010E786F8C6B8D6B800E8E6F3F0E8F6F74
:1001D0000001010E796F04D08C6B8D6B8E6B8F6B71
:1001E000FC0ED76EAA0ED66E7751945D06E176515D
:1001F00001E183DA0001946B01D0942B8B6A7905BD
:1002000001E0BED1040EE76E7819E8AE02D0E73403
:1002100002D0E750785D24E26051020A16E0030A3A
:100220000FE0010A08E0030A01E014D0800E8A6E94
:10023000606B612B0FD0400E8A6E010E606F0AD08A
:10024000200E8A6E020E606F05D0100E8A6E030EAD
:10025000606F00D0610502E1809802D08088616BF8
:10026000000EE76E7819E8AE02D0783503D0E7507B
:10027000D88078553CE2040EE76E7819E8AE02D0DB
:10028000E73402D0E750785D32E2010E786F000E5D
:10029000E76E7119E8AE02D0713503D0E750D8800F
:1002A00071550BE3000EE76E7219E8AE02D072359D
:1002B00003D0E750D880725502E2020E786F000E2C
:1002C000E76E7319E8AE02D0733503D0E750D880DB
:1002D00073550BE3000EE76E7419E8AE02D0743567
:1002E00003D0E750D880745502E2030E786F78513E
:1002F000040A01E142D1050A01E1E8D0030A01E163
:1003000096D0010A46E0030A01E03AD1040E6103E7
:10031000F350602502080CE0040E6103F3506025E1
:10032000040806E0040E6103F3506025060819E195
:10033000040E6103F3506025E96EEA6AE9BEEA68DB
:100340006D0EE926000EEA22EFCFE9FFEA6AE9BE68
:10035000EA68620EE926000EEA22EF5080098B6EF1
:1003600017D0040E6103F3506025E96EEA6AE9BE16
:10037000EA686D0EE926000EEA22EFCFE9FFEA6A8D
:10038000E9BEEA68620EE926000EEA22EF508B6EA3
:10039000F7D0040E6103F350602506E0040E6103FC
:1003A000F3506025070802E18B6A40D0040E610318
:1003B000F3506025030806E0040E6103F350602546
:1003C00005081BE1040E6103F3CF14F06029142427
:1003D000E96EEA6AE9BEEA686D0EE926000EEA22D5
:1003E000EFCFE9FFEA6AE9BEEA68620EE926000E8D
:1003F000EA22EF5080098B6E19D0040E6103F3CF0F
:1004000014F060291424E96EEA6AE9BEEA686D0E08
:10041000E926000EEA22EFCFE9FFEA6AE9BEEA68C0
:10042000620EE926000EEA22EF508B6EA9D0040E70
:100430006103F350602506E0040E6103F35060256C
:10044000070803E18B6A8A6A40D0040E6103F35007
:100450006025030806E0040E6103F35060250508DB
:100460001BE1040E6103F3CF14F060051424E96E60
:10047000EA6AE9BEEA686D0EE926000EEA22EFCFCD
:10048000E9FFEA6AE9BEEA68620EE926000EEA229E
:10049000EF5080098B6E19D0040E6103F3CF14F076
:1004A00060051424E96EEA6AE9BEEA686D0EE92681
:1004B000000EEA22EFCFE9FFEA6AE9BEEA68620EBF
:1004C000E926000EEA22EF508B6E5AD0040E61032B
:1004D000F350602512E0040E6103F350602501081B
:1004E0000CE0040E6103F3506025060806E0040EDC
:1004F0006103F3506025070803E18B6A8A6A3CD0E8
:10050000040E6103F350602504081CE1040E61032E
:10051000F3CF14F0020E605D1424E96EEA6AE9BEBE
:10052000EA686D0EE926000EEA22EFCFE9FFEA6ADB
:10053000E9BEEA68620EE926000EEA22EF50800961
:100540008B6E1AD0040E6103F3CF14F0020E605DBF
:100550001424E96EEA6AE9BEEA686D0EE926000E27
:10056000EA22EFCFE9FFEA6AE9BEEA68620EE9260D
:10057000000EEA22EF508B6E03D08B6A8A6A00D09D
:10058000F294F2A023D000017E6B7F6BD38E80B0FB
:1005900010D0010E7E1901E17F5103E17E6B7F6B6C
:1005A00008D0040E785D04E1760502E1010E786F53
:1005B000766B80B20AD0010E7E1901E17F5103E112
:1005C0007E6B7F6B02D0010E766FF2900001760594
:1005D00004E17E2B000E7F2302D07E6B7F6B84C0F4
:1005E00005F085C006F086C007F087C008F00A6AEB
:1005F0000B6A800E0C6E3F0E0D6E15EC04F005C0FC
:1006000084F006C085F007C086F008C087F00001BE
:100610007D517F19E8AE02D07F3504D07E517C5DDC
:100620007F517D5902E2D39E8A6A80C00AF081C060
:100630000BF082C00CF083C00DF084C005F085C0C3
:1006400006F086C007F087C008F0ABEC04F0010AA2
:1006500002E10001796BE55200EE18F0010EE804AA
:1006600003E3E5CFEDFFFBD700EE13F0140EE80433
:1006700003E3E5CFEDFFFBD7E5CFFAFFE5CFF4FFCE
:10068000E5CFF3FFE5CFF5FFE5CFF7FFE5CFF6FFC9
:10069000E5CFEAFFE5CFE9FFE5CFDAFF1100000182
:1006A00095510CE10001010E956F0AD80CD8936AA0
:1006B000946A9298929A809A8088D38E030012004E
:1006C000570ED36E12009268F19EF180030E796E80
:1006D000F286D59CD59AD586D59CD59AD586FC0E22
:1006E000D76EAA0ED66ED58ED08EF28CF28EF28A8E
:1006F000F184F294D58EF28E1200D9CFE6FFE1CFCD
:10070000D9FFE652DF6A00016D2BDF6ADFCF18F0F8
:10071000070EE76E1818E8AE02D0E73402D0E750B3
:10072000185C68E2050EE76E7019E8AE02D070350D
:1007300003D0E750D880705502E2706B712B050E24
:10074000E76E7219E8AE02D0723503D0E750D88058
:10075000725502E2726B732BDFCFE9FFEA6AE9BEE2
:10076000EA686D0EE926000EEA22EFCF18F0090EB6
:10077000E76E1818E8AE02D0183403D0E750D880DE
:10078000185414E2DF28E96EEA6AE9BEEA686D0EE1
:10079000E926000EEA22EF2ADFCFE9FFEA6AE9BE86
:1007A000EA686D0EE926000EEA22EF6ADFCFE9FF64
:1007B000EA6AE9BEEA686D0EE926000EEA22EFCF8A
:1007C00018F0183415E3DF28E96EEA6AE9BEEA6832
:1007D0006D0EE926000EEA22EF06DFCFE9FFEA6A96
:1007E000E9BEEA686D0EE926000EEA22090EEF6EF8
:0E07F000DF2A8CD7E552E552E7CFD9FF120081
:0207FE000F9E4C
:1008000008D00F9E07AE05D0066C071EE86A0722C7
:100810000F8E07C001F006C000F0136A126A8E0E38
:10082000026E036A25EF05F00D7E0F6A61EC05F09C
:1008300079EC05F00FB609EF05F00FA20AD00FAA68
:1008400003D00FBE09EF05F00FA415EF05F012EF6E
:1008500005F00FAA05D00FAC15EF05F012EF05F06B
:100860000FA00AD00FA808D00FBE04D00FA402D04A
:100870001EEF05F022EF05F0126A036A0D50085CC6
:10088000116E10E305C013F006C000F007C001F0C0
:1008900008C010F00AC005F00BC006F00CC007F04D
:1008A0000F3A09D00AC013F00BC000F00CC001F0E1
:1008B0000DC010F0116C0F9E0FBC0F8E10C002F017
:1008C0000FB051EF05F01A0E116051EF05F0026AFA
:1008D000086A0FA408D0056C061E071E081EE86AE9
:1008E0000622072208220FAC08D0136C001E011E3E
:1008F000021EE86A002201220222046A115207E065
:1009000008340732063205320432112EF9D7055069
:10091000132606500022075001220850022204C06C
:1009200012F00F9E02AE0BD0126C131E001E011EA1
:10093000021EE86A13220022012202220F8E02A068
:1009400006D0D8800132003213321232102A10C081
:1009500002F025EF05F0B4EC04F00FB6000C0FB078
:10096000000C0FB4000C010C0F6A61EC05F079EC7F
:1009700005F00FB612000FAE08D00FA004D00FA8DC
:1009800002D00F8012000F9012000D50085C0BE196
:100990000C50075C08E10B50065C05E10A50055C51
:1009A00002E10F801200D8A002D00F8E10D00850A4
:1009B0000DC008F00D6E07500CC007F00C6E06500D
:1009C0000BC006F00B6E05500AC005F00A6E0D5004
:1009D000085C10E0FF0F09E00F900FB403D00FAEDA
:1009E0000F8412000FAE0F9412000D2AD8900C3213
:1009F0000B320A320A50055E0B50065A0C50075A49
:100A000007BEEAD7D890053606360736082EF8D73F
:100A1000C8D77F0E086EFF0E076E066E056E1200B9
:100A20007F0E0FBEFF0E086E02D07F0E086E800E86
:100A3000076E066A056AF3D70FAE04D0800E086E03
:100A4000076AF7D7086A076AF4D701500010131035
:100A50001210F8E003BEF0D701BE0CD00250031014
:100A6000EBE0D89012361336003601360206D8A0D5
:100A70000306F2D70350D4E10228D2E012AE11D01F
:100A80007F0E121402E113A00CD0132AE86A002290
:100A9000012207E3D880013200321332022A0228F1
:100AA000BFE00250C9E013C005F000C006F00134F9
:100AB000076E0230086E0732089E0FBE088E0FEFD9
:100AC00005F00736083602E30F840F7E06E10F803B
:100AD000086A076A066A056A1200082803E0D880D7
:100AE00007321200D890073202E10F8212000F86FF
:100AF00012000C360D3602E30F8C0F7E06E10F88D4
:100B00000D6A0C6A0B6A0A6A12000D2803E0D8808D
:0E0B10000C321200D8900C32EAE10F8A12006B
:020B1E001E0EA9
:100B2000F66E000EF76E000EF86E00010900F5502B
:100B30009B6F0900F5509C6F03E19B6701D03DD08E
:100B40000900F550966F0900F550976F0900F550B0
:100B5000986F09000900F550E96E0900F550EA6E3A
:100B6000090009000900F550996F0900F5509A6FC6
:100B700009000900F6CF9DF0F7CF9EF0F8CF9FF067
:100B800096C0F6FF97C0F7FF98C0F8FF0001995391
:100B900002E19A5307E00900F550EE6E9907F8E27A
:100BA0009A07F9D79DC0F6FF9EC0F7FF9FC0F8FFD8
:0C0BB00000019B07000E9C5BBFD71200E9
:040BBC00000EF36EC6
:100BC00000EE00F0030E01D81200EA6002D0EE6AD7
:0C0BD000FCD7F350E9601200EE6AFCD77D
:040BDC0011EE00F026
:100BE00021EE00F0F86A0F9C8FEC05F003EC00F0AA
:080BF0004FEC03F0FBD71200EB
:080BF80000003F065B4F666D33
:100C00007D077F67790000000000000000000007FA
:100C100001010000401F000000803B470000000071
:0E0C200000803B450000000000803B450000C6
:020000040030CA
:0100010008F6
:0100020019E4
:010003001EDE
:010006008178
:00000001FF
